:1000000000140020F90600000000000000000000BD
:1000100000000000000000000000000000000000E0
:1000200000000000000000000000000000000000D0
:100030000000000000000000000000008905000032
:100040008D05000000000000B505000091060000CD
:1000500000000000000000000000000000000000A0
:100060000000000000000000002934D0012300221D
:1000700010B488422CD301242407A14204D2814227
:1000800002D209011B01F8E7E400A14204D2814237
:1000900002D249005B00F8E7884201D3401A1A43B4
:1000A0004C08A04202D3001B5C0822438C08A042EB
:1000B00002D3001B9C082243CC08A04202D3001BA1
:1000C000DC082243002803D01B0901D00909E3E71B
:1000D000101C10BC7047002801D00020C04307B49A
:1000E000024802A14018029003BDC046D90000009A
:1000F0000029F0D003B5FFF7B9FF0EBC4243891ABF
:100100001847C046002941D010B4041C4C40A446F6
:1001100001230022002900D54942002800D5404291
:1001200088422CD301242407A14204D2814202D266
:1001300009011B01F8E7E400A14204D2814202D286
:1001400049005B00F8E7884201D3401A1A434C0883
:10015000A04202D3001B5C0822438C08A04202D3B9
:10016000001B9C082243CC08A04202D3001BDC08E1
:100170002243002803D01B0901D00909E3E7101C22
:100180006446002C00D5404210BC7047002806D0C1
:1001900003DB0020C043400801E08020000607B4D4
:1001A000024802A14018029003BDC0461900000099
:1001B0000029EBD003B5FFF7A7FF0EBC4243891A15
:1001C0001847C0467047C0468446101C62468C469D
:1001D000191C634600E0C0461FB500F0FBF800287C
:1001E00001D40021C8421FBD10B500F02BF84042D9
:1001F000013010BD10B500F0EDF8002801DB002043
:1002000010BD012010BDC04610B500F0E3F8002875
:1002100001DD002010BD012010BDC04610B500F06A
:100220005BF8002801DC002010BD012010BDC04695
:1002300010B500F051F8002801DA002010BD0120AF
:1002400010BDC046F0B55F4656464D464446F0B434
:100250000D1C041C8046E80F814618030F03000B99
:100260003F0B83B084461B48009749005E00DF0FB8
:10027000490D9246760DBB4681420CD01548864208
:1002800010D00120B14215D003B03CBC9046994635
:10029000A246AB46F0BD009F01202743F4D10D4894
:1002A0008642EED1604602430120002AECD10120B3
:1002B000B142E9D1009B6345E6D1D045E4D1D945AF
:1002C00006D00029E0D11C43201C441EA041DBE7DE
:1002D0000020D9E7FF070000F0B55F4656464D46BF
:1002E0004446F0B4CD0FDE0FAC461D032D0BB146D6
:1002F000374E0F034C00AB465D0080463F0B640D4C
:1003000092466D0DB44232D0314EB54235D0002CFC
:100310000ED1384341424141081C002D0BD0002929
:1003200019D1CC452DD0654668420123184318E009
:10033000002DF6D1281C59460A4353425341002848
:1003400006D1002BEDD0634658420123184308E044
:100350000020002B05D14A46504250414042012323
:1003600018433CBC90469946A246AB46F0BD3E1CA5
:100370000643C9D002204042F3E75E461643C6D08A
:10038000F8E7AC4207DC0BDA61464842484140429C
:1003900001231843E5E76646704201231843E0E76E
:1003A0005F450AD80ED000205F45DAD26546684224
:1003B0006841404201231843D3E76246504201237B
:1003C0001843CEE7D045F8D80020D045EED3C8E793
:1003D000FF070000F0B556464D4644465F46F0B470
:1003E0000D1C83B0041C0190E80F814618030F0315
:1003F000000B3F0B84463548009749005E00DF0F35
:10040000490D9246760DB846814234D02F48864237
:1004100036D0002918D0002E1FD1341C67463A432D
:1004200053425341002C1FD00020002B05D14246DF
:100430005042504140420123184303B03CBC904617
:100440009946A246AB46F0BD009804436042604125
:10045000041C002EE2D00028E9D1C14515D04F463A
:10046000784201231843E8E7002BF6D04B46584268
:1004700001231843E1E7009F02202743DDD1C5E7B0
:10048000674602201743D8D1C3E7B14204DD4A468C
:10049000504201231843D0E7B14207DB0098604582
:1004A000E4D80AD0009F00206745C6D24F46784264
:1004B0007841404201231843BFE7019A5245D5D8FD
:1004C000019A00205245F1D3B7E7C046FF0700006C
:1004D000F8B5041E31D0C70F00D04442201C00F0F4
:1004E00035F8184D2D1A0A2819DD0B3884402403DD
:1004F0006D05240B6D0D3A1C0026002000210B0D0C
:100500002403240B1B0523430F4C2D051C402C43B7
:1005100064006408D307211C301C1943F8BD061C75
:100520001536231CB3401E1C0B23181AC440240389
:100530006D05240B6D0D3A1CDFE700220025002419
:100540000026DAE71E040000FFFF0F801C210123B4
:100550001B04984201D3000C10391B0A984201D3A6
:10056000000A08391B09984201D30009043902A284
:10057000105C40187047C0460403020201010101EB
:100580000000000000000000FEE70000064B012212
:100590001A708023DB05D96B044A0A40DA63D96BF1
:1005A000034A0A40DA637047A0080020FFFFFFFEFD
:1005B000FFFFFFEF38B5A025ED052B691B011B0FD1
:1005C000082B0DD1314900230B60AA8A52BA4A6028
:1005D000081C8B604A680C30103105F0E3FC47E0E2
:1005E000022B0DD1294BD968002941D09A6818698E
:1005F00082423DDA9A68501C98602B7D8B5437E01C
:10060000042B30D1214CE368002B2AD022682169C9
:100610008A420BDA22689B5CAB6163682068C01871
:1006200080B205F0FDFC2368013318E0626823689E
:10063000201C211CD2180C30103105F0B3FCE368EB
:10064000002B0ED062682268616822688A18626096
:100650001B78AB61606880B205F0E2FC0123236087
:1006600006E0AB6104E0012B02D1084B00229A6046
:10067000C046A023DB05DA6801210A43DA60C046E0
:100680008022D96852000A43DA6038BD0003002096
:1006900010B503F023FD8369002B01D0013B83617A
:1006A00028238269013B0AD3114C1919282462437B
:1006B0008900D2180968103252001152F1E78023E4
:1006C000DB05002A08D01A6810218A431A6001222B
:1006D0005A7019680A4309E006480121C170186878
:1006E0001024A04318605A701A688A431A6010BD1B
:1006F00000600010A008002070B58022D205137998
:10070000DBB2BD2B05D0BC2B01D80133DBB213719A
:10071000F7E700233A4A3B499A188A4204D23A49F9
:10072000C95804331160F5E7384B394A191D043BA9
:10073000934203D200221A600B1CF6E7EFF3088203
:10074000344B191D043B9A4203D9334818600B1CE3
:10075000F7E703F0BFFD31493148053989B280B26E
:1007600003F04EFD2F4B304C012252421A715A7148
:100770009A71DA71221C3C321178221C3D321278B7
:100780001D1C12020A43904234D105F065FC274932
:10079000274B0888274A98420BD0667D0888217D20
:1007A00036023143884204D1118889B22971090A7D
:1007B0006971118899421BD0E07DA17D13880002E8
:1007C00001438B4214D100210423013BDBB2FF2BF8
:1007D00007D01948E618C05C36798642F5D1012168
:1007E000F3E7002904D013889BB2AB711B0AEB71AD
:1007F00001F08AFD114B04221A6062B6FEE7C04682
:100800000000002000030020549A00000403002090
:1008100099080020DC0A0020CDCDCDCD80BF00009E
:1008200000000000AA08002040BF0000FEAB00004E
:10083000FFFF00003EBF000000AC000000E100E050
:10084000014B18607047C046B4080020014B18687F
:100850007047C046B4080020014B18607047C0467E
:10086000F0080020014B18687047C04600000020C7
:10087000014B58687047C0460000002038B50D4C49
:10088000256804F015FAB0352860256804F014FADC
:10089000B4352860256804F017FA074A0749B835C7
:1008A000126809682860527C097823684A439A676D
:1008B00038BDC04600000020B4080020F008002029
:1008C00008B505F087FF04F03DFA021E05D1054981
:1008D000A9230B7105F01EFBFEE705F0A7FFFFF74C
:1008E000CDFF08BDD3060020F0B585B00E1C071C57
:1008F00005F00CFC1F4C029023680021DA68381CBC
:10090000920008F07DFE2368301C1A6900219200D5
:1009100008F076FE029B5C78174D002C0ED000206C
:1009200004F00AFB2B68381C1A1CB432B833126866
:100930001B68311C05F056FC013CEDE72B68B43315
:100940001B68019304F0D2F8039004F0DFF80399D8
:10095000021C019805F0ECFB029B381C5A78311CF4
:1009600005F062FC201C2D6804F0ECFAC03528600C
:1009700005B0F0BDEC02002000000020F7B5494AA8
:100980001368141C9968002200291BDD1869C142F4
:1009900018D52C215E69FF318E4213DC424A117852
:1009A000012291420ED14149096849680220095E3D
:1009B000002907DA3E490988914203D11A6B013AAE
:1009C000511E8A4180331A7005F0A0FB2268002472
:1009D000111C936880310D78A34206D12224005F58
:1009E00016690124864200DB1C1C2C430C70002B72
:1009F00057DB12692F498A4202DB2F498B4250DDB7
:100A00002E4C0193E3787F250092AB430422802192
:100A1000134349420B4302206070E37000202423FB
:100A2000211C6A46237105F075FA254F25493B685C
:100A300002261A681B7980204B708B70CB7840425D
:100A4000AB4333430343194ECB7045230B713368DB
:100A50000A701A68002005F05DFA3B6802211B69E4
:100A600080226370E3785242AB430B431343E3703D
:100A70006A2323713368211C5A68002005F04AFA62
:100A8000084B01211B681A1C803211704C321278FD
:100A9000002A06D10C4A1C69944202DA0833152256
:100AA000DA67F7BD000000207C070020040000206A
:100AB000740700200CFEFFFFDF930400FC00002001
:100AC000EC020020CC06002018FCFFFFF0B587B038
:100AD00005F01CFB051C05F097FE05F08FFE071CBA
:100AE00005F06EF9012800D1BBE0604E604C336820
:100AF000996C081C643021DA9A68632A1EDC20682D
:100B00000191009002921A695A4903921B6B6A463E
:100B10000493594B0020059306234B707C235B42C2
:100B2000CB7013230B7105F0F5F923685A1E226070
:100B3000002B06D1FA235B0023607DE0FA235B00E3
:100B4000236031686A894B69494D93421CDD9022CC
:100B5000FF32934218DC494A8C68944214DD484ABB
:100B6000B88F126852680027D45F84420CDA0227DB
:100B7000D45F844208DA0427D45F0930A04203DB43
:100B80000624125F904207DAF422FF3293421DDD01
:100B90004A6B5B10934219DA36497C235B42CB7077
:100BA0002A1DC023012400200B714C7005F0B2F9FE
:100BB0006A68531E6B60002A0AD13249BE23101C9A
:100BC0000B7105F0A7F950236B604BE050236B606D
:100BD000AA68002A06D12B49BD23101C0B7105F011
:100BE00099F929E0336823491A1C80321478002CC3
:100BF00024D0783AD26F002000921F696A4601978C
:100C00009B68029303234B707C235B42CB701023C1
:100C10000B7105F07FF931680B1CCC310878083373
:100C2000DA6F0221002800D0142100248A4202DC5D
:100C30000132DA6716E0DC67012413E018696A46BE
:100C400000909B680920019302234B707C235B4238
:100C5000CB7020230B7105F05DF933680833DC6736
:100C600000E00024201C07B0F0BDC04600000020BA
:100C7000D8000020FC0000201A070000DC0500005E
:100C800004000020D3060020F0B587B005F098F8E6
:100C9000012801D1002575E03C4E33681A1CCC3286
:100CA0001578002DF6D15A693949101C6538394C30
:100CB000884204D838490020095E643111DB374985
:100CC00050183749884206D833490027C85F35494C
:100CD000884206DB2FE034498A422CDCD86A0F2890
:100CE00029DD196D632926DC586D002923DD411E9D
:100CF000622920D80092284AE0680021525E2B49E0
:100D000001921A6902929F686A460397DB6A05900E
:100D1000049306234B707C235B42CB700020D323CB
:100D20000B7105F0F7F8E3685A1EE260002B04D15E
:100D30000523E36022E00523E3601D4B1B88022BA3
:100D40001ED92069002802D001382061A2E7009353
:100D500033680A225969226101911A691349029282
:100D60009B686A460393134B049305234B707C23C3
:100D70005B42CB70D4230B7105F0CCF8012501E068
:100D80000A232361281C07B0F0BDC04600000020E4
:100D900082030000D80000207A07002017FCFFFF24
:100DA000E603000018FCFFFFE7030000FC00002042
:100DB0007407002009030000F0B5504C89B003937C
:100DC000236805900F1C0492191CB4331A6808316B
:100DD000059B049805F072FA2368051C191CB833AA
:100DE0001A6808313B1C039805F098FB0543EDB2E7
:100DF000381C0399029505F079FC029D002D34D131
:100E0000236804991A1C0832DB6F059805F01AFC58
:100E1000236803991A1C0832DB6F381C05F03CFC70
:100E2000374E384C33680E22A2711A681B7904259C
:100E300022706370A370211C4423281C059A23711F
:100E4000E57005F067F8029B0E22A37133682E4C03
:100E50001B69A2716370281C6923211C3A1C237131
:100E6000E57005F057F8029BA371254F25493B68B3
:100E70007F261A681B7902254B708B70CB788024F3
:100E8000B34364422B4323430A70CB70049A452337
:100E900001200B7105F03EF83B681B491B69039A62
:100EA0004B70CB780120B3432B432343CB706A2391
:100EB0000B7105F02FF83B6806A91A6801200A702B
:100EC0001A794A708A701A7E1B69CA700B714B7945
:100ED0000022B3431D43049B2C434C710093131C0D
:100EE00004F0E4FF039805F045FD044B18686C30EE
:100EF00005F04CFF002009B0F0BDC0460000002006
:100F0000EC020020CC060020FC000020F0B5514F80
:100F10001C1C3B6887B01C60051C0491059205F001
:100F200023FD002110224C4808F06AFB00212422F6
:100F30004A4808F065FB00212422494808F060FB7C
:100F400000211022474808F05BFB474E0021242275
:100F5000301C08F055FB00212422444808F050FBC7
:100F60003D4B0422009201933C49321C3F4B092027
:100F700006F056FC3E4B3F491B6805201A681B795A
:100F80000A704B708B70CB787F22934302221343FD
:100F9000802252421343CB70221C6E230B7104F04B
:100FA000B9FF354C00216C22201C08F029FB2F4B87
:100FB00004220093284B019202930921274A331CF3
:100FC000201C07F051F92070FFF7D8FC201CFFF718
:100FD0007DFD00281BD1201CFFF756FE061E18D1F0
:100FE00005F012FC201C291C049A059B05F042FD0B
:100FF000281C0499059A05F04BFE04F0C3FE012855
:1010000008D03B689868D96801F0ACFC02E0022681
:1010100000E0032605F086F8041C05F0F5FB051C2E
:1010200005F0ECFB2378002B11D02B1C7C331C78B3
:10103000002C0CD142224030AA5603789A4206DA9C
:10104000012003F0BCFA0D4B1B6875331C70301C7B
:1010500007B0F0BD040000207009002080090020C6
:101060003C0A0020F4080020180A0020A4090020EF
:10107000EC020020CC060020040900200000002023
:1010800008B508F0CDF903F01FF808BD08B5002039
:1010900003F044FD03F0DCFCFFF7F0FB08BD08B5EE
:1010A00008F048FA08F0C6F903F00EF8002003F043
:1010B00035FD03F076FAFFF7E1FB08BD10B58AB005
:1010C00024220021041C01A808F09AFA05F03EFE33
:1010D00001A806F003F801A8211C05F015FE05F093
:1010E00035FE0AB010BD0000F0B585B005F08CFBF0
:1010F000334F7C303C68231C75331D7803786EB207
:10110000002B01D1721C02D1002565602EE0A26F78
:1011100063680192934202DA636801336360636833
:10112000284A0393284B12681B68107802931B7C93
:1011300003215843FEF7E6FF039A824200D10125BE
:10114000022E13D06368019A93420FDB029A0225A4
:10115000937C002B0DD0012004F01CFE1B490020C5
:10116000A223021C0B7104F0D5FE27E06BB2B34240
:101170000AD0164900202B1C0E33021C0B7104F000
:10118000C9FE3B6875331D703B681A1C75321278B6
:10119000002A03D10B4A126812780BE052B2012ADE
:1011A00003D1084A1268527804E0022A03D1054AA2
:1011B00012689278DA67D86F03F00CFA05B0F0BDC8
:1011C00000000020F0080020B4080020D306002012
:1011D000F0B589B000AF02F071FF5B4D867A2C68E4
:1011E0006846E1684A00131C0833DB08DB00C01ABC
:1011F00023698546F861580008308900C0080A3123
:10120000C0006B46C9081B1AC900581A9D4685467E
:101210002069BB616B467B6183000A33DB08DB001E
:101220006946C91A8D46684638610021F86908F098
:10123000E7F9226900215200B86908F0E1F90020BD
:1012400003F07AFE2B684149DB6808689A00043A8B
:10125000013B06D3041CB43424687D69A458AC5007
:10126000F5E7731E0A689B00013E47D3111CB83195
:1012700009683C69C958E150043BF5E76446B43459
:1012800024687D6964586D582C1B0025465FA64272
:1012900000DA048004390238013AEFD22B491A6986
:1012A0000E68501EBC6981004000B4462018013A07
:1012B00037D227491E681B790E704B708B70CB7824
:1012C0007F260225B34380242B4364422343CB7003
:1012D00001204523FA690B7104F01CFE1A4B1D49CD
:1012E0001B6801201B69BA694B70CB78B3431D435F
:1012F0002C436A23CC700B7104F00CFE04F02CFD1F
:101300000C281DD1002003F017FE0F4B0F491B685E
:101310000D68DA68FE69501E81004000AC46301846
:10132000BAE76446B83424683D6964586D582C1B8C
:101330000025465FA64200DA048004390238B6E789
:10134000BD4609B0F0BDC046EC0200200000002000
:10135000CC060020FC000020F0B597B000AF38624A
:1013600002F0ACFE02F0BAFE02F0C4FE874BF86158
:101370001C6868466568266800216E4373199B00E7
:101380000A33DB08DB00C01A8546E3686A46FA6266
:10139000B6009A0008F034F92269B408BC61FC6A0E
:1013A0009200A019002108F02BF9794B794A1B68AB
:1013B000AD00AD085A613D61483208259A61BD63B0
:1013C000BA6B724D724C013ABA6300D2B5E0236831
:1013D0000021D86A04F00CFB2E68246835687C6212
:1013E00000247D617C633C637C647C6C7D69AC42E1
:1013F00009DBBC69664B3669FD6AA20018687E6429
:10140000AA18002386E074687D6C231C6B43786BFC
:10141000F96AC51A7A6CAD004D19F869D1005D4AB8
:10142000BC629C005B008A18C3180021FA60BB6094
:10143000F963F96BBA6A91423BDAF86B396B0322B4
:10144000431853437A6AD26AD3181A785978D00964
:10145000490001439878012303405B020B430A21B2
:101460004B43285952061B182B51520E03D04A43A6
:10147000D2119B182B51B96B002915D12A59F96B40
:10148000D0084B00FA68396AD05200290CD17A6A28
:1014900080B2526A3A64FA2292005043BA68D15A32
:1014A000FEF730FE3B6C1851F86B04340130F863E2
:1014B000BFE7D3433C6B7D6CDB171340E418013569
:1014C0003C637D647C6B3D6964197C638DE73C6B98
:1014D000C56A19190324614369180C784D78897815
:1014E000E6096D008C462E430121654629404902DC
:1014F0000E430A214E431568640676191660640E81
:1015000003D04C43E41136191660BC6B002C05D097
:1015100001330432796C8B42D9DB51E71D4C1568DD
:101520005E0034194834E90821803C6A002CEFD170
:10153000856A9C0089B26151EAE7381C00210C22BF
:101540004C3008F05DF82B684C2518681A79E8557E
:101550004D214E25CA55EA551A7E4F201B69C255AA
:1015600050215122CB55D35D7F229343381C022258
:10157000134351254C300749EB5504F03BFC2368DD
:101580000022BD465A619A6117B0F0BDEC020020FE
:1015900004000020C8090020F0B5544D91B02B681C
:1015A00000AF59681A68F9624A4353185B00083360
:1015B000DB08DB006946C91A4D4B8D46B962F96AF2
:1015C0001B684C00520069465961510839616946EF
:1015D0008A189A61002003F0AFFC2D68454B2A68F9
:1015E0001B68F96AFB60131C013B640859436400E3
:1015F000FA6162425C43BB6AB961F9691C19BA605D
:101600007D627C6039620022396A7A61013939620F
:1016100026D37B6A38495C68BA6966187B69796841
:10162000B6185B18B6003B60013C11D3FB68232061
:10163000B4331B6864219D596D096843FEF762FD50
:10164000854200DD2D1A3A686300D552043EEBE76F
:10165000BB69F96A7A695B1ABB61BB68D218D3E7C8
:10166000244B7A6A1B6839691669BA6AFB624B00B7
:10167000D3183B62341C013C11D3FB6AA200B8337F
:101680001B682320D55864216D096843FEF73AFD95
:10169000854200DD2D1A396A6300CD52EBE7381C14
:1016A00000210C22343007F0ABFFFB69796A342249
:1016B000D3550B793522D35536217A6ACB55137E13
:1016C0003721CB557E235B423921381CCB5538223C
:1016D0003430B96AD65504F08DFB054B00221B68E7
:1016E000BD465A619A6111B0F0BDC046EC020020BF
:1016F0000400002000000020FFFFFF3FF0B5A14CD8
:1017000097B0236800AF59681B68396459433A6C35
:10171000F9628B18DA1DD208D2006946891AFA6A72
:101720008D4695009A000A325B00D2080833D20039
:10173000DB08DB007962891ACA1A79638D46D11AEF
:1017400095468D466B46FA6300212A1C786BBB6375
:1017500007F056FF2368796B5A684D199200281CD0
:101760000021BD6207F04CFF236800211A685B6806
:10177000B86B5A43520007F043FFFA6AB96B530043
:101780005B08BB6123685A68BB6952005D00481959
:10179000002107F035FF23687B491A685B68F86B06
:1017A0005A43520007F02CFFFA6B236850195A680D
:1017B0007549520007F024FF396C8B009A087A6152
:1017C0004A0052083A61714A5B421268FB60D26972
:1017D000013A3A63396B6B4C013100D1ABE0002028
:1017E00003F0AAFB6A4B26681B6874683B62674B70
:1017F0001B68FB61013C54D33568396C6B1E4B434D
:10180000E3189B007B64013DF4D33B6A7A6CB433EC
:101810001B68796B9B587A696A43A21892005158E9
:101820005818796B50503A696A43A1183A60BA6BFC
:1018300049008A5A9A4201DABA6B8B5239686218A7
:10184000F96B5200515A994201DDF96B53523A6BD0
:10185000002A21D1FB69D969FEF706FC7B693A6948
:101860006B436A43796BE3189B005850A218B96B1D
:101870005200535AF96B1B1A525A801A834200D9EC
:10188000181C7F2800D97F200C21FEF73BFC3B6C05
:10189000796A6B430A19D0547A6CFB68D2187A645F
:1018A000B1E73B4B36691B68341C3B62374BB96967
:1018B0001B68013C6518FB61BA6BFB6B6D007E64B5
:1018C000A40056195D197A6C013A7A642FD33B6AE9
:1018D000B96AB8331B6809591B59BA6A58181051AC
:1018E00032889A4200DA33802A889A4200DD2B80BF
:1018F0003B6B002B17D1FA69D169FEF7B5FBBB6AC8
:101900002A88185133881B1A801A834200D9181C60
:10191000FF2800D9FF200C21FEF7F4FB796AFA6A50
:101920008B18796C5854023E023D043CCBE73B6B6C
:10193000013B3B634EE7381C00210C224C3007F082
:101940005FFE23684C221968381CD1551A794D2145
:10195000CA554E21CA551A7E4F211B69CA555022BD
:10196000D3557F235B425121CB554C30796A04F02B
:1019700041FA084B00221B68BD46DA611A6217B0B3
:10198000F0BDC046EC020020FFFF0000B4080020BC
:101990000000002004000020F0B595B000AFB86250
:1019A00002F0A8FB9C4BB8611B6868465C681A682B
:1019B000DD68624391000A31C9085200C90008324B
:1019C000401AD2088546D200801A6E466946FE61EA
:1019D000854666007861AA00081CA40000213E61CB
:1019E000A40807F00DFE6A007869002107F008FEE0
:1019F0000826FC60A4003C62FE63FC6B864D013C43
:101A0000FC6350D3854C00212368D86A03F0F0FFB3
:101A1000286825680168FC697962002184463C6376
:101A200079637E6B786A8642E7DA624652683B6B7E
:101A3000FA620022F86A824229DA032450186043CD
:101A4000EE6A3018047846788078BC607600B86317
:101A5000E4093443BE6B012030404002261C06439B
:101A60000A2070431C680619B8681E604406640E9C
:101A700004D00A204443E41136191E60FC6B002C8C
:101A800002D11E68F010186001320433D2E7C3435C
:101A9000DB1703407A6BC9183C6A3B6B01321B1998
:101AA0007A633B63BDE7BC6A28235C432D68FC6214
:101AB0002E6800247E62FE69FC63FC6B786A8442B7
:101AC0000BDB564B7C691B680026BB60544B7C6368
:101AD0001B683E637B60FE636CE06C68231C7C6368
:101AE000FC6B6343FC6A1B19BC695B00E318BB62B7
:101AF0000024786B84420EDAA00031583863BA6A49
:101B0000FA20630080004843D15AFEF7FBFA3B6B92
:101B10000134F050EDE7FC6B0134FC633C6A36198C
:101B2000CBE7BE6A33195B683259981AC11740185F
:101B30009B184840D90FC91849105A1C00DA49426D
:101B4000FE6A7600BE61FA26B6007043FEF7DAFA46
:101B5000796BBA69BB6888525A6A201D11581359AB
:101B60003862C81ACB18C217D90F8018C91850404C
:101B700049105C1C00DA49427043FEF7C3FA7B68E7
:101B80000133DB7F834202DA7E6BBC693053FE6A2D
:101B90003C6A0136FE62FE6AB86B8642C1DBFC6BB2
:101BA0007E6B0134FC633C6936197E63FC683E6BD6
:101BB00036193E63FE6B7C6AA6420EDA6B68FC6BDC
:101BC0005E1E6343BE633E6B9C00F31AFE699B007E
:101BD000F3180026BB62FE62DDE7381C00210C22F0
:101BE000443007F00DFD2B797C6A4420C4555A1E01
:101BF00045264620F255C3552B7E4721CB55381C30
:101C00007E235B42492244307969D35504F0F2F8CF
:101C1000BD4615B0F0BDC046EC0200200400002017
:101C2000B4080020F0B595B000AFF86102F062FA98
:101C3000974B78611B6868465C681A686600624367
:101C400091000A31C908C9001219401A520085468C
:101C500008326D46D2083D63D200DD68801A6946BD
:101C6000B8618546AA00081CA4000021A408FE60F3
:101C700007F0C6FC6A00B869002107F0C1FCA600A5
:101C80003C6108247E62BC63BC6B814D013CBC633B
:101C900050D3804C00212368D86A03F0A9FE2E6837
:101CA000256830683C6B0021B4463862BC62F9623A
:101CB000FE6A386A8642E7DA62465268BB6A7A632D
:101CC0000022786B824229DA032450186043EE6ABE
:101CD00030180478467880787C607600F863E409F0
:101CE0003443FE6B012030404002261C06430A208C
:101CF00070431C68061978681E604406640E04D0A0
:101D00000A204443E41136191E60BC6B002C02D13A
:101D10001E68F010186001320433D2E7C343DB17AA
:101D20000340FA6AC9187C6ABB6A01321B19FA625D
:101D3000BB62BDE7FE692D6828235E43FD622D6806
:101D4000FE61BD623D6B0026FC6A6468BC63BC6AD0
:101D5000A6420DDB4F4BFD681B68BE6BFB614E4B13
:101D60006D081B68B6003D62FB63FE60002468E0FE
:101D7000BB6BFC6973431B197C695B00E3183B6216
:101D80000024B86B84420EDAA000295878633A6ABE
:101D9000FA20630080004843D15AFEF7B3F97B6B09
:101DA0000134E850EDE77C6A01362D19CCE73A6939
:101DB0005D1C6A433E6BA218920091593A697D629C
:101DC0005A43A21892009259881A8A18C517D10F3F
:101DD0004019891868404910561C00DA49423D6A8A
:101DE000FA265D43B60070437D61FEF78BF96519F5
:101DF000B9696D006852FD69786BF9686A6A4518BF
:101E000051591358C81ACB18C217D90F8018C918BE
:101E1000504049105A1C00DA49427043FEF772F9EB
:101E2000FB6B0133DB7F834204DA7E69A319BE6951
:101E30005B0098537B6A7D63BA6A013A9342B6DBD2
:101E40000134BD6BAC4203DAA6007E630023F3E7E6
:101E5000381C0C220021443007F0D2FBBB6ABC6B5B
:101E6000013B4420C3554525E3B24626FC6AEB55A9
:101E7000F355237E4725EB55381C7E235B424926CC
:101E80004430B969F35503F0B5FFBD4615B0F0BD58
:101E9000EC02002004000020B4080020F7B5061C66
:101EA00007F048FB051C04F0AFFC03F089FF03F0CA
:101EB0005BFF019003F074FF032E03D0019B002B06
:101EC00004D108E0019B0124002B2FD0002003F057
:101ED00053FF01242AE0234F019C3B68AC33188850
:101EE000002823D1012E02D0022E01D002E0301CA6
:101EF00004F046F804F03EF83B68041CAE331B784F
:101F0000834212D01849002806D000201123021C59
:101F10000B7103F0FFFF05E01323221C0B7103F08C
:101F2000F9FF251C3B68AE331C70002407F002FB50
:101F3000A84209D0281C07F0F7FA281C07F0A4FAD9
:101F4000002002F0EBFD042403F03AFF051C04F02E
:101F50005BFC0379AB4200D0057103F029FF201C24
:101F6000FEBDC04600000020D3060020F0B58BB0B7
:101F700002AF041C04F048FC03F022FFD349002008
:101F8000A623021C6D460B7103F0C4FFFFF7ACF8EB
:101F90003D60CF4D68462B680021DE681A69FE60FF
:101FA000B2185200131C0833DB08DB00C01A854648
:101FB00002AE301CBE6007F023FBC64E0021306825
:101FC0005822083007F01CFBF968C34BB8681B683F
:101FD0004A00821818605A6000207A6002F092FF6E
:101FE0002B68BE491A681B790A704B708B700423EA
:101FF000CB7043230B7133680220B4331A6803F0AB
:1020000089FF2B68B6481B6904214370672303715D
:102010003368C170B8331A680220B14903F07AFFFF
:102020002B68391C1A6802203A761A7918317A76A8
:10203000BA761A7E1B69FA763B7704237B7733687E
:102040000022B4331B680093131C03F02FFF616858
:102050002068BA687B68FEF7AFFEE168F860002888
:1020600001D0081C0AE07D68A06822690095BB6861
:10207000FEF74CFFF860002803D0E068FFF71EF879
:102080009FE004F043F8051C04F0BEFB3268786062
:102090006B8952699A4220DDA668002E1DD1031C6F
:1020A000BD331B78002B18D18D4D01236B70EB785D
:1020B0007F22934304268022524233431343EB7022
:1020C000BF232B71874DF8682A1C0832844903F01E
:1020D00021FFAB68013BAB6002E0824B50229A606B
:1020E0007E68BD363378002B08D17F4B1B78002BE0
:1020F00002D0A06804F0F2FFA06822E07B4D2B78AC
:10210000002B20D1E0680B250378002B1BD1013D6B
:10211000A068002D15D07B6842331B785BB2002B82
:1021200002D0FA235B00C3607B6843331B785BB249
:10213000002B02D0FA235B000361E16800F012FC7F
:10214000E5E704F0CBFF3378684DA1682B706D464E
:102150007D600D786E46AB000733DB08DB00F61AB6
:102160000869B54602AE002806DD013DA80030181A
:102170002031042207F002FAA168CA68002A06DDAD
:10218000681E800030181C31042207F0F7F9504B0C
:10219000391C1B6803201D681A793D747A74BA745F
:1021A0001B7EBD68FB7400233B757E235B427B7501
:1021B000A36810311A780095331C03F077FE7E680F
:1021C000B54602F029FC01F089FF041C04F01CFB59
:1021D000061C03F0E5FD3F4DF4222968151C4A69F1
:1021E000FF35424BAA4251DC52363278561EB2417C
:1021F000D2B2002A4AD15D681E2D32DD0C1CCC34CF
:102200002278061C1643F6B2002E08D0384D9E6880
:10221000AE4202DD012222701FE0002811D1DE68EB
:102220009625ED00AE4208DC002A13D000280AD122
:10223000642046432F48864205DDCC3101220A70D6
:102240000BE0002A06D0012A04D11A69012A01DC18
:10225000013201E0002222701A6100225A609A6065
:1022600007E0002807D0BD2189009E6861587118D9
:102270009960DA6006E0BE229200D968A2589860A0
:102280008A18DA605A6801325A6003E000225A6004
:102290009A60DA60104B00221B681A605A603D6831
:1022A000AD4602F0BDF90B4E8C2033681856FFF78F
:1022B000F5FD002800D1F8680F4B1B681A680F4B1A
:1022C0009A421DD002F0A0FCFEE7C046D3060020D3
:1022D000EC0200200000002004000020CC060020BA
:1022E000FC000020D8000020380700204403002014
:1022F00010A40000708E0100780A0020CDCDCDCD55
:10230000BD4609B0F0BDC046F0B59DB000AF01F0CC
:1023100085FF03F021FD041C07F072F8002007F090
:10232000B3F800F0FDF9FEF7CBFAC64B69461B681F
:10233000DA681B69D318032253430733D340934011
:10234000C91AC14B8D461B68D96203F005FD061EF4
:10235000082E00D15BE108280CD8012800D1C1E08B
:10236000002816D0022800D1C3E0032800D141E1A3
:10237000341CEAE70E2807D80D2800D357E10C28B3
:10238000F6D103F025FD4BE10F28F1D103F020FD3C
:1023900062E103F0F7FC0028EAD16B463B6002F0F3
:1023A00087F8381C311C24224C3007F029F93D1CD9
:1023B000381C311C18221435343007F021F9311C37
:1023C0000A22281C07F01CF99E4B69461A68D3683C
:1023D00012693D639A1892000A32D208D200891A13
:1023E0009B00CB187B607B624C2234238D46B96006
:1023F0003962D219DB190421BA62FB62F960FA680A
:10240000022A02D8002A14D004E0FB68032B0CD067
:10241000042B5BD102F006FBC0B203F0BDFD8A4B7A
:1024200000211B68D86A03F0E3FAB8687968FEF700
:102430005BFA854D3A1C2B6834324C21C919DA609D
:10244000203A99601A61002C01D003F0C1FC7F4B47
:1024500000221B681A6003F099FD041C02F0E2FAE6
:10246000A04213D0201C02F0E2FA794901234B70FC
:102470007C235B423A1CCB701032E92300203C6184
:102480000B7103F047FD0322FA6016E0381C203080
:10249000FFF76CFD6D4B6F491B68F8601A688A4244
:1024A00001D001321A60002807D103F06BFC00282C
:1024B00003D103F051FC0028CDD02B680024D8684C
:1024C000FEF7FCFD2B689C60DC601C6103F05AFC8D
:1024D000002802D03B689D464AE703F03DFC0028F7
:1024E0008DD0F7E703F074FC03F036FC0128FBD035
:1024F0003EE70020FEF7C4FD534C6D462368D868C4
:10250000FEF7DCFD03F0EEFB002002F007FB02F01B
:102510009FFAFEF7B3F903F05BFC4A4B1A680ACA4C
:102520005943CB189B000A33DB08DB00EA1A236807
:10253000890095465A6252189A6203F053FC0528A6
:102540004AD00CD8022820D002D8012814D045E067
:10255000032835D0042841D102F038FE3EE015288A
:102560001CD004D8062834D0142805D036E016280C
:102570001DD0172824D031E00020FEF781FDFEF7A2
:1025800085FD0020FEF7E8FE28E00020FEF778FD3C
:10259000FEF77CFD0020FEF7FFFF1FE00120FEF7A5
:1025A0006FFDFEF773FD0120FFF73CFB16E00120F5
:1025B000FEF766FDFEF76AFD0120FFF7EDF90DE07D
:1025C0000020FEF75DFDFEF761FD0020FFF796F8A5
:1025D00004E001F0E6FF01E001F0DCFF03F0BCFBEA
:1025E0000228AAD0236800225A629A62FEF757FD99
:1025F000AD46BDE603F0ECFB134B00211B68D86A27
:1026000003F0F6F903F0A8FB0328FBD0B0E603F0D3
:10261000DFFB02F0F9FA03F09FFB0828FBD0A7E6E6
:10262000FEF7D6FD03F098FB0C28F9D0A0E603F0E6
:10263000CFFB002002F080FC03F08EFBB042F8D00C
:1026400096E6C046EC0200200400002000000020B6
:10265000FC000020FFFFFF7F03F07EFB0F28FBD074
:1026600086E6C04638B5041C0D1C03F0E5FB0128C6
:1026700011D0002802D003282ED04DE0274B023580
:102680001B68AD009B685D196B68DB10FF2B00DDDC
:10269000FF23637140E0214B1A68AB1C91689B00DB
:1026A000CB185B68DB10FF2B00DDFF2363719368A1
:1026B000AD005D191F221E23AA56EB561D21D31A09
:1026C0001C226956AA568A1A934202DDA371E2714E
:1026D00022E0A271E3711FE0104B1A68AB1C9168F5
:1026E0009B00CB185B68DB10FF2B00DDFF23A37181
:1026F0009368AD005D191F221E23AA56EB561D21BB
:10270000D31A1C226956AA568A1A934202DD6372B2
:10271000A27201E06272A37238BDC04604000020BC
:1027200008B5042003F0C2FC00F00CF801F08CFBAB
:1027300003F05EFA04F068F8014B0430C36708BD8B
:10274000652600007047000030B5D31A151C0F4AEB
:1027500003ACC93D2478411A95420BD8C817091813
:102760004140D8171A18424091420CDD6042604146
:10277000C0B20AE0CA17D817891851401A18424047
:1027800006204243F0E7DB43D80F30BD9E0F000028
:10279000F7B514224243374B11219A185156147C35
:1027A000354A02294AD164B2611E00D5611C052751
:1027B00047437D183F190097AE00BF009E59DF596F
:1027C0000235BF1BFC173F196740009CAD00023467
:1027D000A4005D591C590197641BE717E4197C405C
:1027E0000094A400A446019C644501DD012408E096
:1027F00003273C1C019F7C43A446009C644501DDEB
:1028000002241454012901D0013100E000210524E3
:10281000444361188C000231890059581C59491BE6
:10282000CD17A61B49196940175CF51773190324C6
:102830006B40012F05D06343994205DC00231354FC
:1028400002E061438B42F9DD115C43000B4A02292F
:102850000DD10B490C5C0B49095C8C4201D0002165
:10286000D152D15A0848814203D0013100E0002101
:10287000D152F7BD900A0020420700203E070020F9
:102880003C0700203A070020FFFF0000F0B51425A8
:102890004543334F041C7E19301C85B01030019124
:1028A000039010217156009103F094FF009A02905A
:1028B000630001320DD10198C31802215A5E0398BA
:1028C000EA5106229B5EB3600023337401234370F8
:1028D00043E00099012902D00E1C013600E00026D9
:1028E00005276743019A0098D5183B1802202A5EF5
:1028F000990094461A4A023350586146401AC2174A
:102900009B009C46801806216B5E5040144A009341
:102910006346D158009A891ACB17C918594004F058
:1029200051F8029BDE331B78984216DD02202A5EA6
:102930000B49BF19BB00CA500622AB5E0237BF006D
:10294000CB5114235C430C19627C231C51B22674B6
:102950001033012901DC01325A7005B0F0BDC046C8
:10296000900A0020F0B5B5B01C910C9003F032FF36
:1029700003F0D8FB03F042FF0E9003F045FF0E9BDF
:102980001390A2331B7801229A40131C0E9A8430B4
:10299000A332127800219B1A0E9AA432127820904A
:1029A0009B1ADBB218222EA8259306F029FE03F00D
:1029B00007FAAB4B0D901B68CC331B78002B08D16A
:1029C0000E9BA6331B8824930E9BA8331B8822934F
:1029D00002E0A44C22942494A34B00251B68089584
:1029E0005B69002B0AD0013B0C9E5A00B2181827D5
:1029F000D25F089C9442F4DA0892F2E7139B0E9D92
:102A0000B8331868ED6C0E9A0E9BE9B278335032E9
:102A100003F058FB0C9E0A903378022B3AD118270A
:102A2000F35F1A20355E1F1EAF4201DC2F1C1D1CF8
:102A3000139B8E4CB8331B687F222893E3780426BF
:102A40009343334380267642032133436170E3701E
:102A50000D202923211C28AA237129972A9503F0E8
:102A600059FA0A9B089843439B129D4212DA2D9310
:102A7000E3787F2293432C97042703211F4361703F
:102A80003E432A230020211C2BAA2B95E67023719C
:102A900003F040FA0C9C2378002B36D00E9D608A00
:102AA0002A1C2B1CA9790832203303F00BFB0D9E46
:102AB000012E01D1C82080000C9F6421FA685024A7
:102AC000514344436A4BA1421DDD1C68694DAC4231
:102AD00001D001341C601B68012B16DD64235843B0
:102AE000814212DA0C9C2B92A38A60492C93022318
:102AF0004B707C235B42CB70002025232BAA0B71EB
:102B000003F008FA01E000221A600C9D139B2A785A
:102B1000C6331A70544B089E1B68139F5B69099358
:102B20000A9B099C73439B121F93143B2393099B9D
:102B30000C9E01339B00E9180431169109992EADC2
:102B400011318900791818910C2161436D18211CED
:102B50000731490071180431099A1A91211C0B316F
:102B60001C9C013A49007118520017950B91139D56
:102B7000B118A218099E06328F1C1492E318AA19E4
:102B800019970631C332043300270F9108921B9323
:102B90001197099F002F00D12CE3169D099C2D68E9
:102BA000013C09941095002D00D104E32C4B4420E6
:102BB0001B681A1C713212781D921D9E08229643C2
:102BC000321C51424A41D2B21592185645424541F3
:102BD000294AEDB211684A680427D45F0626925F3D
:102BE000A4181E2C0EDD00271297BD421BD0234ACD
:102BF00015685268AD18224A954214DC9A68214D36
:102C0000D60F0CE000261296B5420CD01B4A156870
:102C10001D4A954207DC9A681C4DD60F0027954245
:102C20007E41F6B21296104A002615680A96AA68E6
:102C3000032800D01EE1287880252D061E95FF264A
:102C40000138C0B2FF2823D0051C55430F68023558
:102C50006D00ED5F1E9FBD42F2DDC6B21E95EFE72F
:102C60000000002070170000EC020020FC00002093
:102C700058030020FFFFFF7F04000020F40800201D
:102C8000CF070000DB050000AF04000025020000B4
:102C9000B44D76B21196A8681826FF36B04210DC03
:102CA000ED68B14EB5420CDCA8420ADA0F9DAF4F79
:102CB0002E880125F6190A95AD4DB6B2AE4200D860
:102CC000B7E0192C09DDAB4C9E68A64205DCA64C8A
:102CD00001270A97A04200DCABE0A74C5D69A54242
:102CE00057DCA64D9E68AE4253DC0B9F00257F5FEC
:102CF0002197A7424DDC1E1C453636780D6876B20A
:102D00005643023676000A96AE5FC72E41DC119E0E
:102D100002275643B446BC4466467600775FC72F09
:102D200037DC0A9FED190227EE5F954DAE4230DC8D
:102D30008C4D2E686D687619C72E2ADC1E6D5D6D70
:102D40007719412F03DC282E03DC282D21DD142EDA
:102D50001FDD142D1DDD199D8A4F2E888A4DF61911
:102D6000B6B2AE4215D80F9D884F2E88884DF61901
:102D7000B6B2AE420DD8874D219EAE4209DC109FFF
:102D8000A74206DC1D1CCC352D7801260A96002DA5
:102D90004FD01F6D322F04DC5E6D00250A95322E58
:102DA00047DD7D4D9E6800270A97AE4241DC1E1C20
:102DB000453636780D6876B256430236760021964F
:102DC000AF5FF92F35DC119F574302377F007F5FDC
:102DD000F92F2EDC219FED190227EE5F6F4DAE42D9
:102DE00027DC604D2E686D6876195E25FF35AE4292
:102DF0001FDC199D6A4F2E886A4DF619B6B2AE4295
:102E000017D80F9D614F2E88614DF619B6B2AE42AC
:102E10000FD80B9D0026AE5F5E4DAE4209DC109EC2
:102E2000A64206DC1C1CCC34247865426C41E4B21A
:102E30000A941C1C45342478119F64B2BC4219D0FA
:102E40001E9D002D16DD474DED68A84212DA381C94
:102E50005043624309680330033240005200405E31
:102E6000525E904206DC402804DC0C9C2278012A49
:102E700000D10A92159D002D00D117E11D9E4A4AEE
:102E8000002E00D198E0D569516990696F181197AB
:102E900017696422EF19091857436E204843BC464E
:102EA0000127844504DB119C6243824200DB00273A
:102EB0001B9E01203268002A0AD00F9E0024345F36
:102EC000149E0022B25EA21AD017121842400020AF
:102ED000354C266AB446354EB44500DDB9E0344E73
:102EE000109CFFB2B4421BDC1B6D322B18DD002F8F
:102EF00002D0304B994208DD119DC72D00DDA8E0BE
:102F00002C23FF33994200DDA3E00124002803D0E5
:102F1000089E00233370CDE0412A00DCCAE0C2E005
:102F2000174B9C4500DD94E00F4B109E9E4200DD48
:102F30008FE0632D00DD8CE0002F02D01D4B994205
:102F400006DD119F632F00DDACE0952900DDA9E0CF
:102F500001240023002800D09DE0412A00DCA9E0E4
:102F60009DE0C046F40800201F0300004EFAFFFF5A
:102F7000B1050000CF070000AF0400003F060000CD
:102F8000E70300006FE5FFFF4E05000009FBFFFFB0
:102F900024070000BB0200005F0900007705000065
:102FA000D3E5FFFFB20500003C0A0020A3060000A5
:102FB000DB0500005702000055681069D16897686A
:102FC0002818642250436E188446C9196920484362
:102FD00011960127844505DB6E20724348438242E7
:102FE00000DB1D9F1B9C01202268002A0AD00F9E37
:102FF000149C0020305E0022A25E821AD61792191D
:1030000072400020C24C2668B446C24EB44549DC2A
:10301000C14E109CFFB2B4421FDC5B6D322B1CDD35
:10302000002F02D0BD4B994206DD119DD12D10DC41
:103030002C23FF3399420CDC002803D0089E002388
:10304000337022E00124412A34DD089F02233B70C3
:1030500030E0089D00242C702CE0B14B9C4521DC15
:10306000B04B109E9E421DDC772D1BDC002F02D042
:10307000AA4B994204DD119F952F0FDC95290DDC99
:10308000002804D0089C00232370012412E00124AE
:10309000412A0FDD0223089D2B700BE00024089EBF
:1030A000347007E00024089F3C7003E0159D089CE5
:1030B00025702C1C0E9F1A9E3A1C3B1CB979308837
:1030C0000832203302F0FEFF199E099F051C0020E4
:1030D000305E1C9E7B00F3180227D95F0F9E149F61
:1030E0000022B25E0023FB5E8F4E099FF65D0096C4
:1030F000FFF72AFB8D4B0D9ED855012E01D000F015
:103100007CFEC8250727AD001197169E179B3268D5
:103110000C3B1A9F1A60179B3988083B0B9E19605D
:1031200017990023F35E139F099E04390B60B919A8
:103130004231087864214A43002803D0119F40B2ED
:10314000B84206DC4D43AA422CDBE52B2ADD1F9D4D
:1031500008E00E99383109784D43AA4222DBC72B8B
:1031600020DD239DAB421DDB002C06D0159E002EDA
:1031700003D00D9F012F15D105E0129C002C02D029
:103180000D9D012D0ED16A4B099E9B5D002B03D036
:103190000D9F012F06D10EE00A9C002C0BD00D9D37
:1031A000012D08D0169E189F002333603B600C9CB5
:1031B0002378013B2370169D189E043D043E179F03
:1031C0001A9C169518960B9D199E0C3F023C023DC9
:1031D000023E17971A940F9F149C0B951996089D01
:1031E0001B9E023F023C013D043E0F97149408953C
:1031F0001B96CEE44F4B0C9E1B685C69651E6D00F0
:1032000075190635002C13D0013C0C9FA300FB1848
:10321000DB68002B0AD00021685E03F0D9FD2E1F69
:1032200028800022B05E03F001FE3080023DE9E715
:103230000C9D414B2C701B68986800F013FEEB68E6
:10324000002B11D02B93AB8A3C492C931826AB5FF3
:1032500013202D9303234B707C235B42CB702BAA4E
:1032600036230B7102F056FE324B1C221B681C9F4A
:103270005B690C9D5A430993314BD3180893099B02
:10328000013B5B00FA18EB189E1C06330D93099B5B
:10329000941D013302329B000F941292099CFA187C
:1032A000139FEB18043315933B19413310930C23F0
:1032B0006343209D0432EB1817923A1C1693843214
:1032C0006300D2180A961E920C9E1E4A1C9F9A18E2
:1032D000F6180024FB182692219623931994099E30
:1032E000002E01D100F0CDFC159E099D3368013DF3
:1032F0000995002B00D13DE3109F119A3B780632CF
:103300000133DBB259B291421EDC3B7020E0C04673
:103310003C0A0020A3060000DB0500002502000097
:10332000E7030000510300003A0700203C0700209B
:1033300034070020EC02002004000020FC000020E4
:10334000B80800203E070020119B109C0433237016
:10335000109D00242C57012C00DC38E2A01C032116
:10336000FCF726FF169A0D1C0C3A0323022C0AD1F7
:10337000013B10D30A9E590030880D9F5052388867
:103380005118C880F4E7129C4900238852180F9EF8
:1033900013803388D380109F3E78119F74B2BC4253
:1033A00000DCCDE1681D0321FCF702FF169F6B00D6
:1033B0000C3FFB18189700201F5E1D91281D03214C
:1033C0000B971493FCF7F4FE189D14984F00EF1917
:1033D0000625455F022C00DD02260021785E0B9A4F
:1033E00076B2311C101AFCF78DFE1A900623F85E97
:1033F000311C281AFCF786FE1A9E0B9F4519F619F8
:103400001B901F962095032C14DD0A9C129D002012
:10341000205E0023EB5E0D9F0F9CC01A0022BA5E57
:103420000023E35EC617D31ADD1780195B197040BD
:103430006B4014E01E9E199F0A9CF31916255A5FD3
:103440000020205E0D9F801A1A215B5E0022BA5E6A
:10345000C617D31ADA1780199B18704053400A9C7C
:10346000199E1E9DC0182388AD190D9CEB822388E0
:10347000229E96216B834A000096249B0B9502F0B6
:1034800003FE149C0A9F0025645F0026BE5FA446CD
:103490006546721B0D9C149D0027E75F06242C5F78
:1034A000031CD01712183C1B4240E017241844405C
:1034B00014199C4A1268CC3212780292002A03D165
:1034C00096218900192001E097490D20099D974A0E
:1034D000525D2792964A525D279D954218D1954A92
:1034E000099D525D022A13D1199D269A5219151C65
:1034F000023D2D8885420BDD8C4209DA02980028B6
:1035000001D100F087FCDD0FED186D1000F083FC99
:10351000301C002B0BD01D1C6046221C58437243EC
:10352000191980184A108018FCF7ECFD2B1C0B9D14
:10353000E8841498C588381C002B08D028B21919C3
:1035400058437C434A1000198018FCF7DBFD0B9CA4
:103550001F9D6085731B209CD8173D1B1B18434083
:10356000E8172D1845405D190024962D01DD2C1C0F
:10357000963C129D0020285E301A0F9E0021715E3D
:10358000791A03F01FFA1D9D149F189E3F886B0047
:10359000F3181F970E9A1F88A3321D9712780A9D61
:1035A00018922D880E9A2095A43217780E9A1499A5
:1035B000A23215780E9AC8880D99A5321678DA8845
:1035C0000B885D49097800291DD1259900B248432F
:1035D000189912B21BB24A43391C59438218521827
:1035E0001B992A417143962029415218C000634318
:1035F00050439622D200A118C0184A108018FCF738
:1036000081FD0D9B18804D4B1B78002B1FD12098FE
:103610001F9903B2259A08B21D9950430AB218990E
:103620005F434A438018C0191A9F28417E432E41A8
:10363000851996229620D200C000A11868435C43E9
:103640004A1000198018FCF75DFD0A9C2080109D2F
:1036500000210A9E0D9F69560022B25E0023FB5E88
:1036600004290AD1129C0F9E0020205E101AC51753
:10367000401968400022B25E09E00B9C0B9E1E20A0
:10368000205E101AC51740192222B25E68409B1AAC
:10369000DF170A9CDB197B400B9DC01823880D9E09
:1036A000EB83338880246B840E9B6400AA331988D3
:1036B0000E9B2F1CAC331A880094002302F0E4FC0C
:1036C0000A9D2626BB5F0022AA5E241A424363435A
:1036D0000A9FD3181B120D9D3B800023EB5E0B9EAF
:1036E00058432A23F35E0D9F5C430E9B041924125A
:1036F0003C80483300201B5E179D159E2C68306867
:10370000002B0BD0221AD717D2197A4099185043A0
:1037100063434D1018184019FCF7F4FC159C206009
:1037200055E0C046000000208A0200003C0700204F
:103730003A07002042070020370700203607002004
:10374000119DAC4243D1169E281C0C3E0330032130
:103750000B96FCF72DFD0A9F4B003C88F3181C804C
:103760000D9C0F1C22880024DA800325261CE819F2
:103770000321FCF71DFD0B984900411800228B5EC8
:10378000013DF61806200B5EE418002DEFD1301C29
:103790000321FCF7B7FC0A9E85B23580201C03216B
:1037A000FCF7B0FC169B0D9F80B2083B38801D8053
:1037B000169B023B1880169B0A3B1D80169B043B00
:1037C0001880169B0C3B1D80169B063B18800E9B99
:1037D000109C00224033A2561B789A4248DD159D6A
:1037E0002D68002D40DD179E3368002B3CDD129FB5
:1037F000089A39881C3A0F9C1180089A21881A3A35
:103800001180089A183A1360089A0023143A13603A
:10381000089A043A1370CC4B46221B68CC331B78B1
:10382000002B00D032220A9D129E0021695E0023E7
:10383000F35E0D9C0F9DC91A0020205E0023EB5EF5
:10384000CF17C31ADE17C9199B1973407940C918DD
:10385000089B103B914205DD1A6801320A2A06DDF9
:103860000A2204E0002202E0089B0022103B1A60BA
:103870000A9F129C38880D9D208029880F9E159FD5
:1038800031803B68179C199E219D2360AA19239FB4
:10389000548ABA195482109C0022A2560E9C4034BD
:1038A0002478A24219DD089C183C2468002C14DD01
:1038B000089D089C1A3D0027EE5F0DB2751B0C3C5D
:1038C0002560089D089C1C3D0027EE5F05B2751B16
:1038D000EE17AD19083C75402560119F9B4CBA420C
:1038E00023DC139A42255557012D02D02278002A55
:1038F00007D100222270964C2270964C2260964C82
:103900002260002B0CDD099C002C09D1012D07D170
:103910008E4B00B21D708F4B09B218608E4B196030
:103920000123159D5B422B601DE02378002B16D0F0
:10393000884C894B26681B6800B209B2C91A801BE3
:1039400003F040F8854B18602368632B04DC95284E
:1039500002D87F4B01221A707C4B00221A700C9FF8
:103960003B7801333B70139C099D0022631944335B
:103970001A7066E1109E0022B256119FBA4200DC16
:1039800056E102F01DFA704B1A901B681893CC3365
:103990001B78002B05D0E123DB009C4696200326F4
:1039A00004E0AF23DB009C46C8200426179C246853
:1039B0000B94002C2BDD089B183B1B68002B2ADD89
:1039C000089B043B1B78002B25D1089A129F1C3AB8
:1039D0000021525E00257D5F0F9FAD1AEA17AC18DB
:1039E0005440089A0021795E1A3A0027D25F891A5A
:1039F000CA1789185140621882420EDA46290CDD36
:103A00002235442D09D88C4200DA07E205E00B9CF0
:103A1000002C00D115E100231A1C089C143C2168DD
:103A2000B14279DA1A9FFD252F4275D1129D2D885A
:103A30002F1C14959F374A4DBFB2AF426CD80F9FD1
:103A4000484D3F881D97C737BFB2AF4264D8089F23
:103A5000103F3F68002F5FDD824201DD624501DBE0
:103A6000012B59D1089E149F1C3E013118962160EC
:103A70003CB2189F1D98089E0023FB5E05B21A3EBB
:103A80006000C01A0021735E6F00021CFB1AA03296
:103A900003DAA027011B7F4204E0FF277F01B84221
:103AA0000ADD011B581B3A1B50432A1C4A4380184D
:103AB000FCF728FB031C381C1F1CC83704DAC82776
:103AC000591B001B7F4204E0274FBB4208DD591BF6
:103AD000001B7D1B4C4368430019FCF713FB3B1C88
:103AE000149D189C0F9F25803A880B9C3280089A61
:103AF000129D9BB280B2183A146028800D9C3B80C6
:103B00000A9F179D388023802D68159E0C9F356075
:103B10003B7801333B7094E0139D099FEB191A1C0D
:103B2000443210780130C0B210700E9A40B2413267
:103B3000127890421ADD179D109F0022C4332A602C
:103B40003A701A706AE0C046000000203907002071
:103B500038070020740A0020800A0020880A00200C
:103B60007E200000A3120000DD110000904245D12C
:103B70001A1CC4321378002B40D0002901D0B14266
:103B80003CD1109D1199002028560331814235DA2D
:103B90001899CC310978002930D11A9F002F2DD1E6
:103BA000089908390968182928DC129D0A9F298874
:103BB0003980022B0CD10F9D2B8819B21D3115DBDA
:103BC00008990C3909680A2910DD1E235B4210E0B0
:103BD000012B10D10F9F94493B8818B2884208DC12
:103BE00008990C3909680A3103DA904B0D9D2B8036
:103BF00001E00D9F3B800023137007E0129D0A9F98
:103C00002B880F9D3B802B880D9F3B801798159D1F
:103C100000680C9F28603B7801333B70089B0122B1
:103C2000043B26601A70089B0022103B1A6008E0D3
:103C3000139E099F179C109DF219C43223602B70AC
:103C40001370089C0F9D1C3C023D199E129F089406
:103C50000F950A9C0D9D023E023F023C023D1996C3
:103C60001297179E159F0A940D95109C169D043E61
:103C7000043F013C0C3D1796159710941695FFF7DD
:103C80002EFB0C9F1C9C3B7813982370139B139C5A
:103C900052331E70664B1F683E69351C6F356519BF
:103CA000341C2734640004190434013E00D287E038
:103CB0002388002B0DD00A21625E1BB2002A02DC91
:103CC0000E98428F01E00E998A8F934201DA002309
:103CD0002380238818B2FF2803DD0A21625E002AB0
:103CE00006DD0E9A423212780892002B42D001E093
:103CF0000A2208922B787F2B01D001332B700023EE
:103D0000EB560D93022B1BDD0E9B48330022995E70
:103D100062890A91002912D013B21A1A9C46D3174D
:103D2000D1180A9A594063460B9151185A43944648
:103D30000B9A4B1050436044C018FCF7E3F9208005
:103D400023880D9808996381884203DC01235B4234
:103D500023800CE0139A1BB252321178013111709A
:103D6000099A9A4203DA139A099353321670002380
:103D70002B7122E00022AA56089882421BDD62893C
:103D8000002A1AD029790E980131C9B2297143301D
:103D9000007849B281420EDC0999228012B2914228
:103DA00003DA139B099253331E70139B52331A7814
:103DB00001321A7001E063812B70013D023C74E70F
:103DC0007C69002C2DD0013C0C9DA300EB18DB6816
:103DD000002B07D060B2291CFEF758FD201CFEF70F
:103DE000D7FC05E014236343124A9B18FF221A7480
:103DF000114B1A5D114B1A55E3E70E9B159E40338C
:103E0000002E03D01B780133DBB200E01B78119346
:103E1000FFF77BF90A4D0B4BFFF77EFB01230226D0
:103E2000FBE535B0F0BDC046391100003A11000085
:103E3000EC020020900A00203C0700203A070020F6
:103E4000DC050000409C000008B5602002F02EF95F
:103E5000034B00211860602205F0D2FB08BDC0466C
:103E6000D80A0020F0B58FB00490FCF7FBFC02F0FC
:103E7000B1FC02F0C3FC041C02F0C6FCFCF7F8FC29
:103E8000854BA5881F68854B38341B682478CC3354
:103E90001B78834E002B00D1B4E001F081FF336822
:103EA0002DB25B69201C684364210393FCF72AF957
:103EB000039B3024013B5C43049E5D007519069012
:103EC00002353C19039E002E00D1E2E0039F049EC0
:103ED000013FBB00F3180397DB68069FBB4200DA83
:103EE0008BE02368042B01DC013323600023043BB7
:103EF0001A1C143205D0E2189069D16AD06111639E
:103F0000F5E70026AB5F2668A3600427EB5FE3615B
:103F1000231C052E58D1043B013E09D37200DF69F2
:103F20002020801869464752186B0BA95052F2E7BF
:103F300000239C4601218C446646029600272020DF
:103F40006946C018405A08A95A180790D219079E06
:103F5000508831B206B2B14205DD2021C9186E4643
:103F60008853079850800BAA995A00919918C9193B
:103F70004E880098019100B231B2884203DD9E5212
:103F8000009E019A56800298023701300290042860
:103F9000D5DD614602330329CCD10026301C012334
:103FA0005A002027BF1869467F5E0BA9BC46525EA7
:103FB00001336044B618042BF2D10321FCF7A2F8B8
:103FC00003212880301C14E0042E18DC0027231C59
:103FD000381C3A1C0433B24205DA596801324018E1
:103FE00099697F18F6E7311CFCF78CF8311C2880A2
:103FF000381CFCF787F8A88001E000232360023D0D
:10400000303C5FE7336830245D6904986B1E5C4385
:104010005E00861902363C19002D3AD0013D049FFE
:10402000AB00FB18D9681F4A0023535523719942EE
:104030002BDD2368022B01DC01332360E068A268DA
:10404000E369216A2061E260616223620027F35F15
:104050002768A3600420335E03970027E361381CC0
:10406000231C3A1C039904338A4205DA5968013249
:10407000401899697F18F5E7FCF744F803993080F8
:10408000381CFCF73FF8B08000E02360023E303C73
:10409000C2E70FB0F0BDC046D80A002000000020E3
:1040A000EC0200205C03002008B5034B011C3C22FD
:1040B000186805F063FA08BDEC000020014B186891
:1040C0007047C046EC00002008B5034B011C3422A9
:1040D000586805F053FA08BDEC000020014B9868C1
:1040E0007047C046EC000020014B18607047C04686
:1040F000600A0020014B18687047C046600A002023
:10410000F0B52F488DB006782E4BF6B203961B788B
:10411000DBB204932C4B1B78DBB205932B4B1B7843
:10412000DBB206932A4B1F782A4BFFB202971B780B
:10413000DBB20793284B1B78DBB20893274B1B7825
:10414000DBB20993264B1D78264BEDB20A951D78FC
:10415000254BEDB20B951D78244BEDB201951C78E3
:10416000234BE4B21978234BC9B21A78224BD2B24E
:104170001B780078DBB2844665460020AA2D1CD14E
:10418000BE19079F089DBE19099FAE190A9DBE1949
:104190000B9FAE19019DBE19AE19A4190919521829
:1041A000049E9B18059F15489B19069ADB190078F9
:1041B0009B18DBB2181A43425841C0B20DB0F0BD93
:1041C00080BF000081BF000082BF000083BF0000ED
:1041D00084BF000085BF000086BF000087BF0000CD
:1041E00088BF000089BF00008ABF00008BBF0000AD
:1041F0008CBF00008DBF00008EBF00008FBF00008D
:1042000080235B040022188059809A80198901203C
:1042100001431981C046988980B270470023114A32
:1042200011499A188A4204D21049C95804331160BE
:10423000F5E70F4B0F4A191D043B934203D20022AE
:104240001A600B1CF6E70C4B0C4A1360EFF3088264
:104250000433191D043B9A4203D9094818600B1C0A
:10426000F7E770470000002000030020549A000088
:104270000403002099080020D80A0020780A0020B2
:10428000CDCDCDCD104BC022920098580F490140A2
:1042900099509958FF2081434020014399509858E4
:1042A00080210002000AC90501439950042201211E
:1042B0001A60196008211960FC3300215960044B11
:1042C00019690A431A61704700E100E0FFFF00FF2F
:1042D00000ED00E070B50C4DA0260424F605291C65
:1042E000221C301C05F04AF92919221C301905F04E
:1042F00045F9301C291C0831221C083005F03EF914
:10430000BFF36F8F70BDC0469C960000144B70B514
:1043100080261D68F6050424301C291D221C083047
:1043200005F02CF9301C291C221C08310C3005F03A
:1043300025F9301C291C221C0C31103005F01EF907
:10434000301C291C221C1031143005F017F9301CC8
:10435000291C1431221C1C3005F010F970BDC04618
:10436000F000002082B0002201920E4A01AB1168D9
:10437000088E0A1C19880005090B000D2E3209034E
:1043800012780143198001981103074A02400A4339
:104390000192110C10220A439A70019A034B1A6081
:1043A00002B07047F0000020FF0FF0FFA8000040AF
:1043B000384B70B51D6880242B1CE4052C3319780C
:1043C000231CC03318687F2290431140021C04262E
:1043D0000A43201C291C1A601831321CD83005F001
:1043E000CDF8201C291C321C1C31DC3005F0C6F82D
:1043F000201C291C321C2031E03005F0BFF8201CA5
:10440000291C321C2431E43005F0B8F8201C291C8A
:10441000321C2831E83005F0B1F8201C291C321C70
:104420001031143005F0AAF8236B082213432363DC
:10443000236B02221E432663236B13432363236BE8
:104440000122134323632B1DDA7FA16C013A124B27
:10445000D2B292030B401343A364A26C8023DB030C
:104460001343A364231CD4331968F02292040A4333
:104470001A601968FC2212060A431A6032352A783B
:104480003F23A16C1A40054B12060B401343A36453
:1044900070BDC046F0000020FF3FC0FFFFFFFFC01F
:1044A0008023DB0500221A655A65DA677047000031
:1044B00008B503480021A02205F0A2F808BDC046B7
:1044C00000800140054B8022196812030A431A60DC
:1044D0001968034A0A401A607047C046B400004099
:1044E000FFFFF7FF10B5234C234B226813402360D6
:1044F0002268224B1340236022688023DB0213438F
:104500002360FFF7FDFD231C1D4A002815D01D491F
:1045100008780F2803D9F0212068490206E00878BE
:104520000F210840246818494003214001431960C5
:1045300019680A40802149000AE0206812490140B8
:104540008020C0010143216021680A408021890048
:104550000A431A601968802252010A431A601968D6
:104560000A4A0A401A601968094A0A401A60FFF7A5
:10457000A9FF10BDB4000040FFFFF7FFFFFFFDFFE4
:10458000FFFCFFFF85BF0000FF1FFEFFFFF7FFFFDF
:10459000FFFBFFFF8023DB055A6E04218A435A6626
:1045A00070478023DB055A6E04210A435A66704720
:1045B0008023DB055B6E01209B08984370478023B6
:1045C000DB050202D86B120A000E00061043D86306
:1045D0007047000008B50A4B00221A7000F0D0FCAA
:1045E0008023DB050202D86B120A000E000610437E
:1045F000D863D96B802252040A43DA6308BDC046EF
:10460000A008002072B6054B1B5C002B03D1C046EE
:1046100062B630BFF6E762B67047C046A008002019
:1046200008B50020FFF7EEFF08BD000072B6044B8E
:104630001B5C002B02D1C04662B6F7E762B670473A
:10464000A008002070B588B004930C9B03920593DA
:104650000D9B019006930E9B0291079302AA0023E3
:104660000133111C181C151F2C680E68B44201D2AE
:104670002E600C60013004310628F4DD0432062B74
:10468000EED1049808B070BD70B586B003920A9A56
:10469000049305920190029102AA00230133111C98
:1046A000181C151F2C680E68B44201D22E600C60D5
:1046B000013004310428F4DD0432042BEED1039BD5
:1046C000029A03219818049BC018FBF7CDFC06B092
:1046D00070BDF0B587B003AF7960191CBA609C4615
:1046E000039001C101229300FE5864460020236814
:1046F0009E420DD80D1C0192019B043D834205DDB5
:104700002B686B60019B013B0193F5E7266004E099
:1047100001300E6004349042E9DB01320431032A97
:10472000E1D107B0F0BD0000F7B51B4B19680023BD
:10473000CB56002B2FD194229200184D8918184A7D
:104740002E68106801960289561CB60076429400C5
:1047500000960C19009E043BB34209D02D27BC469D
:10476000019FBC4466463678E758F740E750F1E7CA
:10477000837A2C68581CD2188000920040428A1814
:104780000023043B834206D0211C2D310978D758E1
:10479000CF40D750F5E7F7BDF4000020F00000202F
:1047A000EC000020F0B580230122DB055A708BB0AD
:1047B0000320FFF727FF944D00232A68D356002BD0
:1047C00001D0002368E0FCF74DF8CC300378002BD3
:1047D00000D07DE02824013C02D22C68292617E075
:1047E0002B6866009A19131C108C7033C03219881C
:1047F000128807ABFFF76DFF2868089983191984A1
:104800001A1C079870321080099AC0331A80E2E7A8
:10481000013E023C002E16D0231C8822C0335200D9
:104820001988A3181A88B0235B001B5B271C05930B
:10483000D8235B001B5B703738880093059BFFF71C
:1048400023FF3880E4E72A68301C2823013B1BD370
:104850006E4C1919141C6E34248889000C6087244E
:1048600064001119141CBE3424880988271E8F4245
:1048700000DA0F1C8C4200DD0C1C3C1B0019272B9E
:1048800000D13619023AE1E72B68BD229200985018
:10489000BE2292009E5013E0023B191C52310FD0F1
:1048A0005B481918D0187030008849000860F3E799
:1048B000554BBD221B6892009F50BE2292009C5017
:1048C000514B00201B68185601F0EAF80BB0F0BD00
:1048D0000224013C2825013D56D32822161C66439C
:1048E000494F7619396810367600705AA11C514329
:1048F00049193B6810314900C95A231D5A435219BE
:104900003B6810325200D25A07ABFFF7E2FE3B6819
:104910000898079AF0526E009B19002C27D1191C99
:10492000C0310A8009991A1CFE3251828E3A1188D0
:1049300080229200188C9B5A1A1C07ABFFF7C9FE05
:104940003B6808999E193184079A099B8F1AF817BA
:104950003F18C91A4740C81709184140301C703029
:104960008F420CDD8021890003807252B3E7B021B1
:1049700049005A520999D82252009952ABE7028055
:1049800080229200B352A6E7002CA2D11E4B271C16
:104990001D6828264E35013E00D289E71B48331892
:1049A0009B0005932B1C7033198850331A88882379
:1049B0005B005B5B288C0493B0235B005B5B009324
:1049C000D8235B005B5B019380239B005B5B0293BE
:1049D000049BFFF737FE0599052308600D49002069
:1049E00050225A43AA18128C904200DA101C9142AD
:1049F00000DD111C013B012BF2D1411A7F18272E3B
:104A000000D16418023DC6E7F400002000600010E9
:104A100050C00020FFFFFF7F08B5FFF7C3FEFFF780
:104A200083FE08BD8023DB051879C0B27047802360
:104A3000DB051B79DBB2834208D001DA013300E0E9
:104A4000013B8021DAB2C9050A71F4E77047000022
:104A500073B51E4B04221C688023211CDB051C48F7
:104A60001B7904F08BFD2478FFF74AFB194D0028D1
:104A700011D0194B194A1B7812782E6852B25BB2CA
:104A80000092201CBD21C82201F0FEFA2B68706143
:104A90005B69E41801E02B685861002C01DA0024FE
:104AA00002E0FF2C00DDFF242B68E0B21C61FFF761
:104AB000BEFF8023DB055968094A0A405A60094B4A
:104AC000094A19680A401A6073BDC046F000002008
:104AD00004000040F400002083BF000082BF0000FB
:104AE000FFBFFFFFB4000040FFFFEFFF024B1B685A
:104AF0002C3318787047C046F0000020024B1B682A
:104B00002E3318787047C046F0000020024B1B6817
:104B10002D3318787047C046F000002008B500F02B
:104B20008BFAFFF7F3FBFFF71DFCFFF741FC08BD15
:104B30000002064B000A0138002258609A600522E4
:104B40001A60C0461A68D103FCD5704710E000E037
:104B5000044B054900221A6059609A6005221A60C8
:104B60007047C04610E000E0FFFFFF0010B5802254
:104B7000D20554680F21E40D0C400823012C04D009
:104B80005468E40D21405B1ADBB21C1C094B1279FE
:104B90001B6844435969EB23891AFF315943064B7B
:104BA0000648C918FBF7AEFAC1B2201CFBF7AAFAF7
:104BB00010BDC046F40000203542000040420F0006
:104BC000014B00221A60704710E000E013B50B4C57
:104BD0000B48A368C01A0193FFF7C8FF09490123D6
:104BE0004B7004230190CB7000206F2301AA0B713E
:104BF00001F090F900230198236016BD10E000E059
:104C0000FFFFFF00FC000020F7B5244C2448256876
:104C100000F0E6F9FFF78CFF0026224F224CBD4240
:104C20001FD280377B1B2027832B00DC9F100123A2
:104C3000677000202A1C211CBF10E370207101F056
:104C400069F92B1C3A1C013A08D3002E04D11749EC
:104C50001868884200D01E1C0433F4E7BF00ED1929
:104C6000DBE70E4904220B680125F31A0193E27079
:104C7000A723211C01AA002065702371843701F04D
:104C800049F90423BE1BE3700020A823211C01AABC
:104C900001966570237101F03DF9F7BD780A002097
:104CA000801A060080130020FC000020CDCDCDCD61
:104CB00000487047C0810140024B186894239B0054
:104CC000C0187047F4000020044B1B681889044B7F
:104CD00094301B68800018187047C046EC00002014
:104CE000F40000208023DB05996C802212060A4321
:104CF0009A649A6C1A439A640A4B5A1CFF32002138
:104D000002C39342FBD1084A9342F6D18023DB05CC
:104D10009A6C520052089A64996C044A0A409A6448
:104D20007047C0460000024000040240FFFFFFBF82
:104D300008B58023DB051A6B10210A431A63FFF7BD
:104D4000D1FF08BD10B58023DB051A1CB4321168F1
:104D50000F20814307200143BC3311601A6864218E
:104D6000120C12040A431A60FFF772FEFFF7BAFB37
:104D7000FFF7B0FAFFF7CAFAFFF7F4FAFFF718FBEC
:104D8000FFF78EFBFFF7D4FF00F056F9041CFFF786
:104D900079FA62B6201C10BDF7B5494E0190494F13
:104DA00000287CD1484B1B681A1CAE321278002AAE
:104DB00003D1CC331B78002B02D03368072201E0EB
:104DC000336805229A61414B04221D684048291C22
:104DD000183104F0D3FB291C1C3104223D4804F097
:104DE000CDFB291C203104223B4804F0C7FB291CC1
:104DF00024310422394804F0C1FB291C2831042243
:104E0000374804F0BBFB2B1C2C331978354B7F2221
:104E1000186811409043021C0A4380241A60E4057C
:104E2000A26C314B1340A364A36C3F229343A36451
:104E3000A16C2E4B0B40A3642D4B288E19680005E6
:104E4000090B000D090301431960291C2E31087854
:104E5000323500030090196826480840011C00986C
:104E6000014319602B78A16C1A401306224A0A40AC
:104E70001A43A26433683A689988120B0905090D30
:104E800012030A433A60DA789B780F21D21A0A405B
:104E90001A4B216B52010B401343236302E033682A
:104EA00001229A61336801225A703968144A0A4013
:104EB000802149010A433A6001981870F7BDC04645
:104EC000F4000020D400004000000020F00000208A
:104ED000D8000040DC000040E0000040E40000405A
:104EE000E8000040C0000040FFDFFFFF3FF0FFFF91
:104EF000A8000040FF0FF0FFFFFFFFC01FFEFFFFF5
:104F0000FFCFFFFF08B5FFF747FF094B0022DA701C
:104F1000084B10201B68DA618023DB051968814388
:104F200019605A701A6801210A431A6008BDC04608
:104F3000A0080020F400002008B5FFF7E3FFFFF70A
:104F40006BFD08BD10B5041CFFF702FE201CFFF727
:104F5000D9FF80230122DB055A700320FFF766FB8F
:104F6000FFF734FE10BD08B5FFF7CCFFFFF71AFCC2
:104F700008BD8023DB05986C8004C00F70470000DB
:104F8000F8B58023DB051979061C58680F22C00D7F
:104F9000C9B210400824012804D05868C00D02404E
:104FA000A41AE4B25F68FF23591AEB2359430A4B52
:104FB0000A48C918FBF7A6F801257F0A2F407D4053
:104FC00001356843211CFBF79DF8044B311C584305
:104FD000FBF798F8F8BDC0463542000040420F008C
:104FE000F8B58023DB051979061C58680F22C00D1F
:104FF000C9B210400824012804D05868C00D0240EE
:10500000A41AE4B25F68FF23591AEB235943084BF3
:105010000848C918FBF776F801257F0A2F407D4024
:1050200001356843211C7043FBF76CF8F8BDC0469E
:105030003542000040420F00F7B5A0225A48002137
:1050400004F0DEFA594B0A221B68019318890023E9
:10505000013821D3019C564F2118CE7A524D76004B
:10506000F15D00960C01641966680F252E40B44668
:10507000009EBF197E780127B740664637436668B1
:105080002F40AE433E4366608A4200DD0A1C8B42DD
:1050900000DB191C0B1CDBE7019FB87A013822D317
:1050A000019C434F211833310E783F4D7600F15D5E
:1050B00000960C01641966680F252E40B446009EC8
:1050C000BF197E780127B7406646374366682F4090
:1050D000AE433E4366608A4200DD0A1C8B4200DB21
:1050E000191C0B1CDAE733499500096809208A72FC
:1050F0008A708D80CB72CB700A22013A37D32E4F43
:105100000F24D3191B015F79161CA74326403C1CB2
:1051100034435C71294E7F24032A04DC1F68A743B3
:105120003C1C04430AE0071C072A0DDC0C3727400F
:1051300001971F68A7433C1C019F3C431C601C68EF
:1051400026408024A4000CE01837274001971F68F0
:10515000A7433C1C019F3C431C601C6826408024E4
:10516000640026431E6001387F231840C5E7144BB6
:1051700080221868D205000B000305431D60C87823
:1051800089780F24401A20400E49146B40012140B9
:105190000143116319680C4A01200A40E0214903C8
:1051A0000A431A60FEBDC04600400040EC000020EB
:1051B000A8960000F4000020000400047FFCFFFF1C
:1051C000D40000401FFEFFFFFF3FC0FFF0B5A24D1F
:1051D0009BB02868694600898024021C4243D31D85
:1051E000DB08DB00C91A00AFE4058D462679FF21F4
:1051F000F8626846B86104F003FAFF20FFF7F0FE9A
:10520000FA6A9649D200131C0E33081ADB08F860BC
:10521000DB006846C01A8546F86A6B4680007B62F0
:10522000031C0A33DB087A61DB006A46D21A954612
:1052300000220023BA63FB63386168463862A268C3
:10524000874BF6B21340A3602B681C89013C611C9C
:1052500016D0814B381C1B685C301B19D97A202270
:1052600004F06EF9F96D68228B00D219D3183A6EEA
:10527000303B0121186891400A1C02431A60E5E79F
:10528000FF239E1BEB235E43764C3419BE69BC6042
:105290000024FE61BC62BE6AFC6AA64200DBC6E076
:1052A00000217A69786A04F0ABF9802400213A6918
:1052B000386A04F0A5F9E405002323656365BD6B36
:1052C00064206566FE6B7E63A666FFF789FEFFF7C6
:1052D0002FFC614BBE6A1B68381C9B19D97A54306D
:1052E0000A31C9B2202204F02BF9B86BF96BBB6DFF
:1052F000386479647A6D0121994068260B1CF6198F
:1053000091007118081C283806689E43331C0660FB
:10531000002A04D030390A685340636501E06B40CD
:1053200023657E6B65660A20A666FFF759FE012697
:10533000FFF7FEFBA667E667386C7B6B454065664A
:10534000796C4B40A366FFF703FC3A6C7D6C7B6A7B
:105350007A63454AFC689168A14214DB434A7C6B3E
:105360001068526820405C682A40944203D3F0D110
:105370001C688442EDD23C6ADA60B2009860A150A9
:1053800001360833E5E7FFF71BFC8023DB0500222D
:105390009A67DA67012E42D0741E786AE400041915
:1053A000013E002E3BD0231C083B1A6821685B6835
:1053B00091436268FD6A9A43B300B964FA64013D9F
:1053C0007B63BA6A954228D0234B381C1B685C303B
:1053D0005B19D97A20220A3104F0B2F83B6E01221F
:1053E000F86D9A406821131CC91982008A18203A66
:1053F00012681A420FD07B6B3A6AB968D258174BC1
:105400001B489B1A3B63FAF77DFE011C386BFAF7C9
:105410002BFEF9694855013DD3E7083CC0E7BC6A5B
:10542000FE690134BC62FC6A3619FE6133E73C1C3C
:105430005C340C22201C002104F0E2F8FE6A201CDF
:10544000F3B223706370A370B9690123637100F034
:10545000D1FCBD461BB0F0BDEC000020FFFFFF00FB
:10546000FFC3FFFF3542000010E000E09000004065
:1054700040420F0073B5041CFFF738FB061CFFF712
:105480003DFB134B051C1B681B8F5E434643F61107
:105490002660FFF76EFD002803D022685543ED0912
:1054A0002560226867235343DB09236009491A1CDE
:1054B000033B6360019301234B700A3A0423A2600B
:1054C000CB700820472301AA0B7100F023FD73BDA8
:1054D000EC000020FC000020F0B589B00793002408
:1054E0000EAB0590029106921C57FFF7E5FB039067
:1054F000002C00D085E0444B03211B68059C0493DD
:105500001A89531E4B43111CE318013936D3039FEC
:1055100088003858069CA0420DD91E785C789D788A
:10552000F009640004432F1C012007407F023C4324
:10553000029FE41B0FE0079CA0421DD21E785C78FE
:105540009D78F009640004432F1C012007407F026E
:105550003C43029F3C19A4B2271C0740FF0101975E
:105560007F273E40019F85433E431E706608640AC4
:10557000044025435E709D70033BC6E70498039F7B
:10558000817A03204B1ED3184343059C9200BA181E
:10559000E3180392013934D3039A88001058069C0B
:1055A000A0420DD91E785C789D78F0096400044310
:1055B0002F1C012007407F023C43029FE41B0FE0A9
:1055C000079CA0421BD21E785C789D78F00964008D
:1055D00004432F1C012007407F023C43029F3C19DB
:1055E000A4B2271C07407F22FF0116403E431E70D5
:1055F0006608640A0440854325435E709D70033B42
:10560000C8E709B0F0BDC046EC000020F0B585B099
:10561000061C0C1C151C1F1CFFF74EFB0190002FD5
:1056200058D12D4B03211B6802931A89531E4B43FB
:1056300091004118F3180391BA4220D00398B900A1
:10564000411A04390968A94205D919784806400E5B
:105650000091001B06E0A9420ED219784806400EC0
:1056600000912018844661467F2001408C460099B5
:1056700081436046014319700137033BDCE7029B1D
:105680000320997A4B1ED318434352180198920075
:105690008218F6180192002399421BD0019A9800B3
:1056A000101A04380068A84204D9307847067F0EE3
:1056B0003F1B05E0A8420AD2307847067F0EE71963
:1056C000BC4662467F273A40B843104330700133EE
:1056D000033EE1E705B0F0BDEC000020F0B589B075
:1056E0000590002900D093E04A4B1B68039318896A
:1056F0000490049A914248DA039A01255318DA7A01
:10570000454B520098184478281CA040C0B2D35C86
:105710000690424E03201B0148439B195E68059A80
:10572000360910180F27027837404678D209AE4064
:105730001643827807972A4052021643221DAA4038
:10574000D75A01967F0AEE407F023E43D652D75A7F
:105750000078FF054006FF0D000C3843D052019839
:10576000069F079A0540BA43A5402A43D2B20F27A5
:10577000101CBA4200D9381C07405868F0223F017B
:105780009043384358600131B3E7039B9A7A013A5A
:105790003ED3039C049FA318333319781E4B490052
:1057A00058184078CB5C0790D11903204843059CDA
:1057B0001A4E20181B019B1901784678C9097600FA
:1057C0000E4381780125294049020E430799770845
:1057D0000431A940CC5A0078640A64022743CF52AE
:1057E000CF5A4006FF05000CFF0D3843C8525868D9
:1057F0003540079E0F2100092C1C0840B44020436F
:10580000014008015968F024A14301435960BEE7F3
:1058100009B0F0BDEC000020A89600000040004058
:10582000F0B58BB000AF78610D1C161CFFF744FA81
:1058300014243861032D00D108246A4B186878625B
:1058400001893962827A68468A1852000832D20881
:10585000D200801A811A85468D46F8616846B86183
:10586000002E00D0BAE03B6A0322013B5343796922
:10587000386ACB18F9694200684689188218B960FD
:10588000FA60396AB1421FD0012215420FD0B868C0
:105890007100411A0239796018785978C00991402D
:1058A000084399780A405202024378680280A907A7
:1058B00007D51978F8687200821A4906023A490E2B
:1058C00011800136033BDCE77A6A937A0122013BBF
:1058D00025D3154214D0786A03260189C9184800D7
:1058E0007143386278690E5C411848788978F60906
:1058F0000A404000520206431643396AFA698E5242
:10590000A807E3D5796A03200A89D21851004243D7
:105910007869125CB8695206520E0A52D6E71542EF
:105920001DD07A6A3049937902260B705379201C76
:105930004B708B70FA6941230B71CE7000F0EAFA5C
:10594000284B2A491B68201C9A7ACE704A70002284
:105950000A711A89FB6952009A1800F0DBFA0226D4
:1059600035421CD01F4D20492B68201C9A790A70A3
:105970005B79BA694B708B7042230B71CE7000F06B
:10598000C9FA2B6819499A7ACE704A7000220A71B6
:105990001A89B86952008218201C00F0BBFA11491C
:1059A00004250B6810499A79201C0A705B793A69C2
:1059B0004B708B7043230B71CD7000F0ABFA094A2A
:1059C0000A491368201C9A7ACD704A7067220A71BE
:1059D0001A893B6992009A1800F09CFABD460BB0F8
:1059E000F0BDC046EC000020CC060020FC000020EA
:1059F000F0B587B0051C0C1CFFF75EF9254B264956
:105A00001B68281C1A899B7A244FD21803235A43F7
:105A100003F0F6FD002303A8039304930593FFF717
:105A200029FD0A26013E7F10002E13D0211C281CC0
:105A3000FFF754FE201CFFF796FA281C221C0121B8
:105A4000FFF7EEFE0094281C391C039A059BFFF714
:105A500043FDE7E707267F27013E7F10281C002E25
:105A600011D0211CFFF73AFE201CFFF77CFA281CFE
:105A7000221C0221FFF7D4FE281C391C049A231C87
:105A8000FFF7C4FDE8E70321221CFFF7C9FE012050
:105A900007B0F0BDEC000020FFFF0100FF03000095
:105AA00070B5061CFFF708F9051C002E2AD1164C0C
:105AB000311C23681A899B7AD218920003F0A0FD4A
:105AC00022681489A1006918731E3619002E0AD0A5
:105AD0001019C018C07A0D4E800080190668980011
